{
  "_format": "hh-sol-artifact-1",
  "contractName": "MultiSig",
  "sourceName": "contracts/MultiSig.sol",
  "abi": [
    {
      "inputs": [
        {
          "internalType": "address[]",
          "name": "_owners",
          "type": "address[]"
        },
        {
          "internalType": "uint256",
          "name": "_required",
          "type": "uint256"
        }
      ],
      "stateMutability": "nonpayable",
      "type": "constructor"
    },
    {
      "anonymous": false,
      "inputs": [
        {
          "indexed": true,
          "internalType": "address",
          "name": "owner",
          "type": "address"
        },
        {
          "indexed": true,
          "internalType": "uint256",
          "name": "txId",
          "type": "uint256"
        }
      ],
      "name": "Approve",
      "type": "event"
    },
    {
      "anonymous": false,
      "inputs": [
        {
          "indexed": true,
          "internalType": "address",
          "name": "sender",
          "type": "address"
        },
        {
          "indexed": false,
          "internalType": "uint256",
          "name": "amount",
          "type": "uint256"
        }
      ],
      "name": "Deposit",
      "type": "event"
    },
    {
      "anonymous": false,
      "inputs": [
        {
          "indexed": true,
          "internalType": "uint256",
          "name": "txId",
          "type": "uint256"
        }
      ],
      "name": "Execute",
      "type": "event"
    },
    {
      "anonymous": false,
      "inputs": [
        {
          "indexed": true,
          "internalType": "address",
          "name": "owner",
          "type": "address"
        },
        {
          "indexed": true,
          "internalType": "uint256",
          "name": "txId",
          "type": "uint256"
        }
      ],
      "name": "Revoke",
      "type": "event"
    },
    {
      "anonymous": false,
      "inputs": [
        {
          "indexed": true,
          "internalType": "uint256",
          "name": "txId",
          "type": "uint256"
        }
      ],
      "name": "Submit",
      "type": "event"
    },
    {
      "inputs": [
        {
          "internalType": "uint256",
          "name": "_txId",
          "type": "uint256"
        }
      ],
      "name": "approve",
      "outputs": [],
      "stateMutability": "nonpayable",
      "type": "function"
    },
    {
      "inputs": [
        {
          "internalType": "uint256",
          "name": "",
          "type": "uint256"
        },
        {
          "internalType": "address",
          "name": "",
          "type": "address"
        }
      ],
      "name": "approved",
      "outputs": [
        {
          "internalType": "bool",
          "name": "",
          "type": "bool"
        }
      ],
      "stateMutability": "view",
      "type": "function"
    },
    {
      "inputs": [
        {
          "internalType": "uint256",
          "name": "_txId",
          "type": "uint256"
        }
      ],
      "name": "execute",
      "outputs": [],
      "stateMutability": "nonpayable",
      "type": "function"
    },
    {
      "inputs": [],
      "name": "getOwners",
      "outputs": [
        {
          "internalType": "address[]",
          "name": "",
          "type": "address[]"
        }
      ],
      "stateMutability": "view",
      "type": "function"
    },
    {
      "inputs": [
        {
          "internalType": "address",
          "name": "",
          "type": "address"
        }
      ],
      "name": "isOwner",
      "outputs": [
        {
          "internalType": "bool",
          "name": "",
          "type": "bool"
        }
      ],
      "stateMutability": "view",
      "type": "function"
    },
    {
      "inputs": [
        {
          "internalType": "uint256",
          "name": "",
          "type": "uint256"
        }
      ],
      "name": "owners",
      "outputs": [
        {
          "internalType": "address",
          "name": "",
          "type": "address"
        }
      ],
      "stateMutability": "view",
      "type": "function"
    },
    {
      "inputs": [],
      "name": "required",
      "outputs": [
        {
          "internalType": "uint256",
          "name": "",
          "type": "uint256"
        }
      ],
      "stateMutability": "view",
      "type": "function"
    },
    {
      "inputs": [
        {
          "internalType": "uint256",
          "name": "_txId",
          "type": "uint256"
        }
      ],
      "name": "revoke",
      "outputs": [],
      "stateMutability": "nonpayable",
      "type": "function"
    },
    {
      "inputs": [
        {
          "internalType": "address",
          "name": "_to",
          "type": "address"
        },
        {
          "internalType": "uint256",
          "name": "_value",
          "type": "uint256"
        },
        {
          "internalType": "bytes",
          "name": "_data",
          "type": "bytes"
        }
      ],
      "name": "submit",
      "outputs": [],
      "stateMutability": "nonpayable",
      "type": "function"
    },
    {
      "inputs": [
        {
          "internalType": "uint256",
          "name": "",
          "type": "uint256"
        }
      ],
      "name": "transactions",
      "outputs": [
        {
          "internalType": "address",
          "name": "to",
          "type": "address"
        },
        {
          "internalType": "uint256",
          "name": "value",
          "type": "uint256"
        },
        {
          "internalType": "bytes",
          "name": "data",
          "type": "bytes"
        },
        {
          "internalType": "bool",
          "name": "executed",
          "type": "bool"
        }
      ],
      "stateMutability": "view",
      "type": "function"
    },
    {
      "stateMutability": "payable",
      "type": "receive"
    }
  ],
  "bytecode": "0x60806040523480156200001157600080fd5b50604051620022c0380380620022c08339818101604052810190620000379190620003d9565b60008251116200007e576040517f08c379a00000000000000000000000000000000000000000000000000000000081526004016200007590620004f1565b60405180910390fd5b60008111801562000090575081518111155b620000d2576040517f08c379a0000000000000000000000000000000000000000000000000000000008152600401620000c99062000535565b60405180910390fd5b60005b8251811015620002f95760008382815181106200011b577f4e487b7100000000000000000000000000000000000000000000000000000000600052603260045260246000fd5b60200260200101519050600073ffffffffffffffffffffffffffffffffffffffff168173ffffffffffffffffffffffffffffffffffffffff16141562000198576040517f08c379a00000000000000000000000000000000000000000000000000000000081526004016200018f9062000513565b60405180910390fd5b600160008273ffffffffffffffffffffffffffffffffffffffff1673ffffffffffffffffffffffffffffffffffffffff16815260200190815260200160002060009054906101000a900460ff161562000228576040517f08c379a00000000000000000000000000000000000000000000000000000000081526004016200021f90620004cf565b60405180910390fd5b60018060008373ffffffffffffffffffffffffffffffffffffffff1673ffffffffffffffffffffffffffffffffffffffff16815260200190815260200160002060006101000a81548160ff0219169083151502179055506000819080600181540180825580915050600190039060005260206000200160009091909190916101000a81548173ffffffffffffffffffffffffffffffffffffffff021916908373ffffffffffffffffffffffffffffffffffffffff160217905550508080620002f09062000634565b915050620000d5565b50806002819055505050620007ef565b6000620003206200031a8462000580565b62000557565b905080838252602082019050828560208602820111156200034057600080fd5b60005b858110156200037457816200035988826200037e565b84526020840193506020830192505060018101905062000343565b5050509392505050565b6000815190506200038f81620007bb565b92915050565b600082601f830112620003a757600080fd5b8151620003b984826020860162000309565b91505092915050565b600081519050620003d381620007d5565b92915050565b60008060408385031215620003ed57600080fd5b600083015167ffffffffffffffff8111156200040857600080fd5b620004168582860162000395565b92505060206200042985828601620003c2565b9150509250929050565b600062000442601383620005af565b91506200044f82620006f1565b602082019050919050565b600062000469600f83620005af565b915062000476826200071a565b602082019050919050565b600062000490600d83620005af565b91506200049d8262000743565b602082019050919050565b6000620004b7602183620005af565b9150620004c4826200076c565b604082019050919050565b60006020820190508181036000830152620004ea8162000433565b9050919050565b600060208201905081810360008301526200050c816200045a565b9050919050565b600060208201905081810360008301526200052e8162000481565b9050919050565b600060208201905081810360008301526200055081620004a8565b9050919050565b60006200056362000576565b9050620005718282620005fe565b919050565b6000604051905090565b600067ffffffffffffffff8211156200059e576200059d620006b1565b5b602082029050602081019050919050565b600082825260208201905092915050565b6000620005cd82620005d4565b9050919050565b600073ffffffffffffffffffffffffffffffffffffffff82169050919050565b6000819050919050565b6200060982620006e0565b810181811067ffffffffffffffff821117156200062b576200062a620006b1565b5b80604052505050565b60006200064182620005f4565b91507fffffffffffffffffffffffffffffffffffffffffffffffffffffffffffffffff82141562000677576200067662000682565b5b600182019050919050565b7f4e487b7100000000000000000000000000000000000000000000000000000000600052601160045260246000fd5b7f4e487b7100000000000000000000000000000000000000000000000000000000600052604160045260246000fd5b6000601f19601f8301169050919050565b7f6f776e6572206973206e6f7420756e6971756500000000000000000000000000600082015250565b7f6f776e6572732072657175697265640000000000000000000000000000000000600082015250565b7f696e76616c6964206f776e657200000000000000000000000000000000000000600082015250565b7f696e76616c6964207265717569726564206e756d626572206f66206f776e657260008201527f7300000000000000000000000000000000000000000000000000000000000000602082015250565b620007c681620005c0565b8114620007d257600080fd5b50565b620007e081620005f4565b8114620007ec57600080fd5b50565b611ac180620007ff6000396000f3fe6080604052600436106100955760003560e01c80639ace38c2116100595780639ace38c2146101f8578063a0e67e2b14610238578063b759f95414610263578063dc8452cd1461028c578063fe0d94c1146102b7576100ea565b8063025e7c27146100ef57806314de327f1461012c57806320c5429b146101555780632f54bf6e1461017e5780638253951a146101bb576100ea565b366100ea573373ffffffffffffffffffffffffffffffffffffffff167fe1fffcc4923d04b559f4d29a8bfc6cda04eb5b0d3c460751c2402c5c5cc9109c346040516100e091906116b8565b60405180910390a2005b600080fd5b3480156100fb57600080fd5b5061011660048036038101906101119190611259565b6102e0565b6040516101239190611534565b60405180910390f35b34801561013857600080fd5b50610153600480360381019061014e91906111ed565b61031f565b005b34801561016157600080fd5b5061017c60048036038101906101779190611259565b610528565b005b34801561018a57600080fd5b506101a560048036038101906101a091906111c4565b6107e5565b6040516101b291906115bd565b60405180910390f35b3480156101c757600080fd5b506101e260048036038101906101dd9190611282565b610805565b6040516101ef91906115bd565b60405180910390f35b34801561020457600080fd5b5061021f600480360381019061021a9190611259565b610834565b60405161022f949392919061154f565b60405180910390f35b34801561024457600080fd5b5061024d610929565b60405161025a919061159b565b60405180910390f35b34801561026f57600080fd5b5061028a60048036038101906102859190611259565b6109b7565b005b34801561029857600080fd5b506102a1610c77565b6040516102ae91906116b8565b60405180910390f35b3480156102c357600080fd5b506102de60048036038101906102d99190611259565b610c7d565b005b600081815481106102f057600080fd5b906000526020600020016000915054906101000a900473ffffffffffffffffffffffffffffffffffffffff1681565b600160003373ffffffffffffffffffffffffffffffffffffffff1673ffffffffffffffffffffffffffffffffffffffff16815260200190815260200160002060009054906101000a900460ff166103ab576040517f08c379a00000000000000000000000000000000000000000000000000000000081526004016103a290611698565b60405180910390fd5b600360405180608001604052808673ffffffffffffffffffffffffffffffffffffffff16815260200185815260200184848080601f016020809104026020016040519081016040528093929190818152602001838380828437600081840152601f19601f82011690508083019250505050505050815260200160001515815250908060018154018082558091505060019003906000526020600020906004020160009091909190915060008201518160000160006101000a81548173ffffffffffffffffffffffffffffffffffffffff021916908373ffffffffffffffffffffffffffffffffffffffff1602179055506020820151816001015560408201518160020190805190602001906104c19291906110ad565b5060608201518160030160006101000a81548160ff021916908315150217905550505060016003805490506104f69190611759565b7f08324b3d745b914e3abd4ffbfead91e3b78391a98c173202129215ab933adfbe60405160405180910390a250505050565b600160003373ffffffffffffffffffffffffffffffffffffffff1673ffffffffffffffffffffffffffffffffffffffff16815260200190815260200160002060009054906101000a900460ff166105b4576040517f08c379a00000000000000000000000000000000000000000000000000000000081526004016105ab90611698565b60405180910390fd5b8060038054905081106105fc576040517f08c379a00000000000000000000000000000000000000000000000000000000081526004016105f390611618565b60405180910390fd5b8160038181548110610637577f4e487b7100000000000000000000000000000000000000000000000000000000600052603260045260246000fd5b906000526020600020906004020160030160009054906101000a900460ff1615610696576040517f08c379a000000000000000000000000000000000000000000000000000000000815260040161068d90611678565b60405180910390fd5b6004600084815260200190815260200160002060003373ffffffffffffffffffffffffffffffffffffffff1673ffffffffffffffffffffffffffffffffffffffff16815260200190815260200160002060009054906101000a900460ff16610733576040517f08c379a000000000000000000000000000000000000000000000000000000000815260040161072a90611638565b60405180910390fd5b60006004600085815260200190815260200160002060003373ffffffffffffffffffffffffffffffffffffffff1673ffffffffffffffffffffffffffffffffffffffff16815260200190815260200160002060006101000a81548160ff021916908315150217905550823373ffffffffffffffffffffffffffffffffffffffff167fec9ab91322523c899ede7830ec9bfc992b5981cdcc27b91162fb23de5791117b60405160405180910390a3505050565b60016020528060005260406000206000915054906101000a900460ff1681565b60046020528160005260406000206020528060005260406000206000915091509054906101000a900460ff1681565b6003818154811061084457600080fd5b90600052602060002090600402016000915090508060000160009054906101000a900473ffffffffffffffffffffffffffffffffffffffff169080600101549080600201805461089390611808565b80601f01602080910402602001604051908101604052809291908181526020018280546108bf90611808565b801561090c5780601f106108e15761010080835404028352916020019161090c565b820191906000526020600020905b8154815290600101906020018083116108ef57829003601f168201915b5050505050908060030160009054906101000a900460ff16905084565b606060008054806020026020016040519081016040528092919081815260200182805480156109ad57602002820191906000526020600020905b8160009054906101000a900473ffffffffffffffffffffffffffffffffffffffff1673ffffffffffffffffffffffffffffffffffffffff1681526020019060010190808311610963575b5050505050905090565b600160003373ffffffffffffffffffffffffffffffffffffffff1673ffffffffffffffffffffffffffffffffffffffff16815260200190815260200160002060009054906101000a900460ff16610a43576040517f08c379a0000000000000000000000000000000000000000000000000000000008152600401610a3a90611698565b60405180910390fd5b806003805490508110610a8b576040517f08c379a0000000000000000000000000000000000000000000000000000000008152600401610a8290611618565b60405180910390fd5b816004600082815260200190815260200160002060003373ffffffffffffffffffffffffffffffffffffffff1673ffffffffffffffffffffffffffffffffffffffff16815260200190815260200160002060009054906101000a900460ff1615610b2a576040517f08c379a0000000000000000000000000000000000000000000000000000000008152600401610b2190611658565b60405180910390fd5b8260038181548110610b65577f4e487b7100000000000000000000000000000000000000000000000000000000600052603260045260246000fd5b906000526020600020906004020160030160009054906101000a900460ff1615610bc4576040517f08c379a0000000000000000000000000000000000000000000000000000000008152600401610bbb90611678565b60405180910390fd5b60016004600086815260200190815260200160002060003373ffffffffffffffffffffffffffffffffffffffff1673ffffffffffffffffffffffffffffffffffffffff16815260200190815260200160002060006101000a81548160ff021916908315150217905550833373ffffffffffffffffffffffffffffffffffffffff167f90ec57f18fa7b15c6b8d5e4d1deb90796c74b2ff23d4d0cecad0cb42a96b312860405160405180910390a350505050565b60025481565b600160003373ffffffffffffffffffffffffffffffffffffffff1673ffffffffffffffffffffffffffffffffffffffff16815260200190815260200160002060009054906101000a900460ff16610d09576040517f08c379a0000000000000000000000000000000000000000000000000000000008152600401610d0090611698565b60405180910390fd5b806003805490508110610d51576040517f08c379a0000000000000000000000000000000000000000000000000000000008152600401610d4890611618565b60405180910390fd5b8160038181548110610d8c577f4e487b7100000000000000000000000000000000000000000000000000000000600052603260045260246000fd5b906000526020600020906004020160030160009054906101000a900460ff1615610deb576040517f08c379a0000000000000000000000000000000000000000000000000000000008152600401610de290611678565b60405180910390fd5b600254610df784610fae565b1015610e38576040517f08c379a0000000000000000000000000000000000000000000000000000000008152600401610e2f906115d8565b60405180910390fd5b600060038481548110610e74577f4e487b7100000000000000000000000000000000000000000000000000000000600052603260045260246000fd5b9060005260206000209060040201905060018160030160006101000a81548160ff02191690831515021790555060008160000160009054906101000a900473ffffffffffffffffffffffffffffffffffffffff1673ffffffffffffffffffffffffffffffffffffffff16826001015483600201604051610ef4919061151d565b60006040518083038185875af1925050503d8060008114610f31576040519150601f19603f3d011682016040523d82523d6000602084013e610f36565b606091505b5050905080610f7a576040517f08c379a0000000000000000000000000000000000000000000000000000000008152600401610f71906115f8565b60405180910390fd5b847fddb556f1d2c1ec821e910b019d3685b229db152a0ecd517ca7e24b8bd713928960405160405180910390a25050505050565b600080600090505b6000805490508110156110a757600460008481526020019081526020016000206000808381548110611011577f4e487b7100000000000000000000000000000000000000000000000000000000600052603260045260246000fd5b9060005260206000200160009054906101000a900473ffffffffffffffffffffffffffffffffffffffff1673ffffffffffffffffffffffffffffffffffffffff1673ffffffffffffffffffffffffffffffffffffffff16815260200190815260200160002060009054906101000a900460ff161561109657816110939061183a565b91505b806110a09061183a565b9050610fb6565b50919050565b8280546110b990611808565b90600052602060002090601f0160209004810192826110db5760008555611122565b82601f106110f457805160ff1916838001178555611122565b82800160010185558215611122579182015b82811115611121578251825591602001919060010190611106565b5b50905061112f9190611133565b5090565b5b8082111561114c576000816000905550600101611134565b5090565b60008135905061115f81611a5d565b92915050565b60008083601f84011261117757600080fd5b8235905067ffffffffffffffff81111561119057600080fd5b6020830191508360018202830111156111a857600080fd5b9250929050565b6000813590506111be81611a74565b92915050565b6000602082840312156111d657600080fd5b60006111e484828501611150565b91505092915050565b6000806000806060858703121561120357600080fd5b600061121187828801611150565b9450506020611222878288016111af565b935050604085013567ffffffffffffffff81111561123f57600080fd5b61124b87828801611165565b925092505092959194509250565b60006020828403121561126b57600080fd5b6000611279848285016111af565b91505092915050565b6000806040838503121561129557600080fd5b60006112a3858286016111af565b92505060206112b485828601611150565b9150509250929050565b60006112ca83836112d6565b60208301905092915050565b6112df8161178d565b82525050565b6112ee8161178d565b82525050565b60006112ff826116f8565b611309818561171b565b9350611314836116d3565b8060005b8381101561134557815161132c88826112be565b97506113378361170e565b925050600181019050611318565b5085935050505092915050565b61135b8161179f565b82525050565b600061136c82611703565b611376818561172c565b93506113868185602086016117d5565b61138f816118e1565b840191505092915050565b600081546113a781611808565b6113b1818661173d565b945060018216600081146113cc57600181146113dd57611410565b60ff19831686528186019350611410565b6113e6856116e3565b60005b83811015611408578154818901526001820191506020810190506113e9565b838801955050505b50505092915050565b6000611426603483611748565b9150611431826118f2565b604082019050919050565b6000611449600983611748565b915061145482611941565b602082019050919050565b600061146c601183611748565b91506114778261196a565b602082019050919050565b600061148f602683611748565b915061149a82611993565b604082019050919050565b60006114b2601383611748565b91506114bd826119e2565b602082019050919050565b60006114d5601383611748565b91506114e082611a0b565b602082019050919050565b60006114f8600983611748565b915061150382611a34565b602082019050919050565b611517816117cb565b82525050565b6000611529828461139a565b915081905092915050565b600060208201905061154960008301846112e5565b92915050565b600060808201905061156460008301876112e5565b611571602083018661150e565b81810360408301526115838185611361565b90506115926060830184611352565b95945050505050565b600060208201905081810360008301526115b581846112f4565b905092915050565b60006020820190506115d26000830184611352565b92915050565b600060208201905081810360008301526115f181611419565b9050919050565b600060208201905081810360008301526116118161143c565b9050919050565b600060208201905081810360008301526116318161145f565b9050919050565b6000602082019050818103600083015261165181611482565b9050919050565b60006020820190508181036000830152611671816114a5565b9050919050565b60006020820190508181036000830152611691816114c8565b9050919050565b600060208201905081810360008301526116b1816114eb565b9050919050565b60006020820190506116cd600083018461150e565b92915050565b6000819050602082019050919050565b60008190508160005260206000209050919050565b600081519050919050565b600081519050919050565b6000602082019050919050565b600082825260208201905092915050565b600082825260208201905092915050565b600081905092915050565b600082825260208201905092915050565b6000611764826117cb565b915061176f836117cb565b92508282101561178257611781611883565b5b828203905092915050565b6000611798826117ab565b9050919050565b60008115159050919050565b600073ffffffffffffffffffffffffffffffffffffffff82169050919050565b6000819050919050565b60005b838110156117f35780820151818401526020810190506117d8565b83811115611802576000848401525b50505050565b6000600282049050600182168061182057607f821691505b60208210811415611834576118336118b2565b5b50919050565b6000611845826117cb565b91507fffffffffffffffffffffffffffffffffffffffffffffffffffffffffffffffff82141561187857611877611883565b5b600182019050919050565b7f4e487b7100000000000000000000000000000000000000000000000000000000600052601160045260246000fd5b7f4e487b7100000000000000000000000000000000000000000000000000000000600052602260045260246000fd5b6000601f19601f8301169050919050565b7f6e6f742073756666696369656e7420617070726f76616c7320746f206578656360008201527f75746520746865207472616e73616374696f6e2e000000000000000000000000602082015250565b7f7478206661696c65640000000000000000000000000000000000000000000000600082015250565b7f747820646f6573206e6f74206578697374000000000000000000000000000000600082015250565b7f7472616e73616374696f6e206e6f7420617070726f766564206279206d73672e60008201527f73656e6465720000000000000000000000000000000000000000000000000000602082015250565b7f747820616c726561647920617070726f76656400000000000000000000000000600082015250565b7f747820616c726561647920657865637574656400000000000000000000000000600082015250565b7f6e6f74206f776e65720000000000000000000000000000000000000000000000600082015250565b611a668161178d565b8114611a7157600080fd5b50565b611a7d816117cb565b8114611a8857600080fd5b5056fea2646970667358221220f5806d44de5484d20d313eec3dc2ba1dfeaaf950888db9896088acb76501a72364736f6c63430008040033",
  "linkReferences": {},
  "deployedLinkReferences": {}
}